{
  "_format": "hh-sol-artifact-1",
  "contractName": "Invest",
  "sourceName": "contracts/DAO/Invest.sol",
  "abi": [
    {
      "anonymous": false,
      "inputs": [
        {
          "indexed": false,
          "internalType": "address",
          "name": "startup",
          "type": "address"
        },
        {
          "indexed": false,
          "internalType": "uint256",
          "name": "value",
          "type": "uint256"
        }
      ],
      "name": "Investment",
      "type": "event"
    },
    {
      "anonymous": false,
      "inputs": [
        {
          "indexed": true,
          "internalType": "address",
          "name": "previousOwner",
          "type": "address"
        },
        {
          "indexed": true,
          "internalType": "address",
          "name": "newOwner",
          "type": "address"
        }
      ],
      "name": "OwnershipTransferred",
      "type": "event"
    },
    {
      "inputs": [
        {
          "internalType": "address",
          "name": "",
          "type": "address"
        }
      ],
      "name": "fundedStartup",
      "outputs": [
        {
          "internalType": "uint256",
          "name": "",
          "type": "uint256"
        }
      ],
      "stateMutability": "view",
      "type": "function"
    },
    {
      "inputs": [
        {
          "internalType": "address",
          "name": "_startup",
          "type": "address"
        },
        {
          "internalType": "uint256",
          "name": "_value",
          "type": "uint256"
        }
      ],
      "name": "invest",
      "outputs": [],
      "stateMutability": "nonpayable",
      "type": "function"
    },
    {
      "inputs": [],
      "name": "owner",
      "outputs": [
        {
          "internalType": "address",
          "name": "",
          "type": "address"
        }
      ],
      "stateMutability": "view",
      "type": "function"
    },
    {
      "inputs": [],
      "name": "renounceOwnership",
      "outputs": [],
      "stateMutability": "nonpayable",
      "type": "function"
    },
    {
      "inputs": [],
      "name": "totalInvest",
      "outputs": [
        {
          "internalType": "uint256",
          "name": "",
          "type": "uint256"
        }
      ],
      "stateMutability": "view",
      "type": "function"
    },
    {
      "inputs": [
        {
          "internalType": "address",
          "name": "newOwner",
          "type": "address"
        }
      ],
      "name": "transferOwnership",
      "outputs": [],
      "stateMutability": "nonpayable",
      "type": "function"
    }
  ],
  "bytecode": "0x6080806040523461005b5760008054336001600160a01b0319821681178355916001600160a01b03909116907f8be0079c531659141344cd1fd0a4f28419497f9722a3daafe3b4186f6b6457e09084a361046890816100618239f35b600080fdfe608080604052600436101561001357600080fd5b6000803560e01c918263616b40e3146100965750508063715018a61461008d5780638da5cb5b14610084578063b7a9a9a31461007b578063b9b8c246146100725763f2fde38b14610065575b38600080fd5b61006d610295565b61005f565b5061006d610196565b5061006d61015b565b5061006d61011b565b5061006d6100b4565b346100b057816003193601126100b0576020906001548152f35b5080fd5b503461011657600080600319360112610113576100cf61035e565b80546001600160a01b0319811682556040519082906001600160a01b03167f8be0079c531659141344cd1fd0a4f28419497f9722a3daafe3b4186f6b6457e08284a3f35b80fd5b600080fd5b5034610116576000366003190112610116576000546040516001600160a01b039091168152602090f35b600435906001600160a01b038216820361011657565b5034610116576020366003190112610116576001600160a01b0361017d610145565b1660005260026020526020604060002054604051908152f35b503461011657604080600319360112610116576000907ffe123a1efb6782dccd20e9790951adcfab3cd0e11b85a6f06d8b9222d299a0a36101d5610145565b602435906101e161035e565b610235858080875186865af13d87146102905767ffffffffffffffff3d818111610283575b875191601f8201601f19908116603f0116830190811183821017610276575b885281528760203d92013e6103cd565b61024961024483600154610410565b600155565b6001600160a01b03166000818152600260209081526040918290208490558551928352820192909252a151f35b61027e6103b6565b610225565b61028b6103b6565b610206565b6103cd565b5034610116576020366003190112610116576102af610145565b6102b761035e565b6001600160a01b0390811690811561030a57600080546001600160a01b031981168417825560405191939192167f8be0079c531659141344cd1fd0a4f28419497f9722a3daafe3b4186f6b6457e08484a3f35b60405162461bcd60e51b815260206004820152602660248201527f4f776e61626c653a206e6577206f776e657220697320746865207a65726f206160448201526564647265737360d01b6064820152608490fd5b6000546001600160a01b0316330361037257565b606460405162461bcd60e51b815260206004820152602060248201527f4f776e61626c653a2063616c6c6572206973206e6f7420746865206f776e65726044820152fd5b50634e487b7160e01b600052604160045260246000fd5b156103d457565b60405162461bcd60e51b81526020600482015260146024820152732330b4b632b2103a379039b2b7321022ba3432b960611b6044820152606490fd5b8119811161041c570190565b634e487b7160e01b600052601160045260246000fdfea26469706673582212208df9d3ca7701428013973c2ea8c7ca86e2ab9acab0e04a06edd3d8017c824fa064736f6c634300080d0033",
  "linkReferences": {},
  "deployedLinkReferences": {}
}